:100000000C94B3000C94D0000C94D0000C94D0004D
:100010000C94D0000C94BD070C94D0000C94D0002C
:100020000C94D0000C94D0000C94D0000C94D00010
:100030000C94D0000C94D0000C94D0000C94D00000
:100040000C94D0000C94A3070C94D0000C94D00016
:100050000C94D6020C9402030C94D0000C94D000A3
:100060000C94D0000C94D0000C94D0000C94D000D0
:100070000C9494030C94C0030C94D0004D656C64F4
:10008000652D53797374656D2D54657374004D65DA
:1000900068722054657374006B75727A007C008EF0
:1000A0000098004D656E7520756E62656B616E6EB1
:1000B00074004861726477617265206665686C746B
:1000C00000536F667477617265206665686C7400B2
:1000D00020003E00506D3A202020202057205069FB
:1000E0003A20202020205700496D3A20202020204F
:1000F000412049693A2020202020410055733A20B0
:1001000020202020562055693A202020202056000B
:10011000207A7572F5636B204E54310020003E004A
:100120005457494E2D56494557204F7074696F6E8C
:10013000656E004C6164656E20312020204C616446
:10014000656E2032004E65747A7465696C31204E9C
:1001500065747A7465696C320048617570746D6598
:100160006E750020000011241FBECFEFD0E1DEBF6E
:10017000CDBF11E0A0E0B1E0E0EAF5E102C00590FA
:100180000D92A233B107D9F712E0A2E3B1E001C0AA
:100190001D92AA35B107E1F70E94D2000C94CF0A54
:1001A0000C940000CF92DF92EF92FF920F931F9377
:1001B000CF93DF93CDB7DEB76C970FB6F894DEBF61
:1001C0000FBECDBF10921C028CE00E94A2020E94C2
:1001D00052040E948B070E94AC040E94E6098AB177
:1001E00080668AB9809180008368809380008091C6
:1001F00081008960809381008091B0008362809348
:10020000B0008091B10081608093B10084E692E0FB
:10021000909389008093880088E88093B400789454
:1002200080E00E941C0880E00E941C088091C001B0
:100230001816C4F51092C00180911401815080936A
:1002400014010E94BC0400913201109133010E94FC
:100250000C0A992787FD9095080F191F10933301F9
:10026000009332010E94260A80E00E946B048456AB
:10027000924048F480918800909189000196909373
:1002800089008093880080E00E946B04855692402C
:1002900048F080918800909189000197909389009F
:1002A000809388008091140187FF08C089E08093C3
:1002B00014018091150181508093150180911501E1
:1002C00087FF42C089E0809315018091160181501B
:1002D0008093160180910001909101019A8789878E
:1002E00082E1FE013B9611928A95E9F7CE010996CB
:1002F0000E94660280910001909101019A83898396
:1003000086E0FE01339611928A95E9F76E01089412
:10031000C11CD11C7601009114021091150220918C
:100320001602309117024091180250911902609103
:100330001A0270911B0280911C020E941707C601CD
:100340000E941F080E9434088091160187FF6ECF1B
:1003500089E0809316010E94000668CF429A00C08F
:1003600042980895CF93DF93662311F0409A01C01D
:10037000409841983B9A3C9A3D9A3E9A46984598B7
:100380004498439887FD469AC82FDD27C6FD459AB5
:10039000C5FD449AC4FD439A0E94AE014698459813
:1003A00044984398C3FD469AC2FD459AC1FD449ABC
:1003B000C0FD439A0E94AE01439A449A459A469AD8
:1003C000DF91CF910895882311F0409A01C04098A1
:1003D000419A3B983C983D983E98429A00C0339B86
:1003E00002C080E101C080E0349980623599806468
:1003F00036998068429800C0429A00C03399816063
:10040000349982603599846036998860429899273A
:10041000089580E00E94E30187FDFBCF88E08A9584
:10042000F1F780E00E94E301992708951F93182FA8
:100430000E94090260E0812F0E94B2011F9108957D
:100440001F93182F0E94090261E0812F0E94B201C0
:100450001F910895662311F4805809C0613011F48A
:10046000805405C0623011F48C5601C08C520E9439
:10047000160208950E9409029927089581E00E94BA
:100480001602089582E00E94160208951F93182F05
:100490000E940902982F1A3099F4843110F480E4F4
:1004A0000BC08054843110F484E106C094519C3216
:1004B00010F484E501C080E080580E94160204C058
:1004C00061E0812F0E94B2011F910895CF93DF93C5
:1004D000EC0102C00E94460289918823D9F7DF917E
:1004E000CF910895CF93DF93EC0102C00E944602A2
:1004F000FE01219684918823C9F7DF91CF91089559
:100500000F931F93CF93DF93CDB7DEB726970FB628
:10051000F894DEBF0FBECDBF4AE050E08E010F5F02
:100520001F4FB8010E94550AC8010E946602269614
:100530000FB6F894DEBF0FBECDBFDF91CF911F91F4
:100540000F9108950F931F93082F389A399A3A9A6A
:100550003F9A3B9A3C9A3D9A3E9A479A20E0E8EBB4
:10056000FBE0CF010197F1F72F5F2C33D1F7449ACD
:100570000E94AE010E94AE0144980E94AE0110EFAD
:10058000812F8A95F1F788E00E9416021A95F1F7FB
:100590000E943E0280E08A95F1F786E00E941602F2
:1005A000802F0E9416021F910F9108951F920F92A3
:1005B0000FB60F9211242F938F939F93EF93FF9376
:1005C0009091C0002091C600E0917601EF5FEF713D
:1005D00080917701E81711F482E008C0892F8871B3
:1005E000E0937601FF27EC5AFE4F20838093780139
:1005F000FF91EF919F918F912F910F900FBE0F90D0
:100600001F9018951F920F920FB60F9211248F937F
:100610009F93EF93FF9390917401809175019817C8
:1006200069F0E0917501EF5FEF71E0937501FF27CD
:10063000EC5CFE4F80818093C60005C08091C100B4
:100640008F7D8093C100FF91EF919F918F910F90CB
:100650000FBE0F901F9018959C011092740110927C
:100660007501109276011092770197FF04C082E025
:100670008093C0003F77832F99278093C5002093F4
:10068000C40088E98093C10086E08093C200089589
:100690009091760180917701981719F480E091E0AC
:1006A0000895E0917701EF5FEF71E0937701FF2705
:1006B000EC5AFE4F2081809178019927982F882746
:1006C000820F911D0895282F909174019F5F9F7153
:1006D000809175019817E1F3E92FFF27EC5CFE4F3D
:1006E0002083909374018091C10080628093C10047
:1006F0000895CF93DF93EC0103C021960E9463031A
:1007000088818823D1F7DF91CF910895CF93DF932C
:10071000EC0102C00E946303FE01219684918823AC
:10072000C9F7DF91CF9108951F920F920FB60F92E4
:1007300011242F938F939F93EF93FF939091C80071
:100740002091CE00E091BB01EF5FEF718091BC0181
:10075000E81711F482E008C0892F8871E093BB018B
:10076000FF27E756FE4F20838093BD01FF91EF9155
:100770009F918F912F910F900FBE0F901F90189502
:100780001F920F920FB60F9211248F939F93EF93A6
:10079000FF939091B9018091BA01981769F0E091A7
:1007A000BA01EF5FEF71E093BA01FF27E758FE4F00
:1007B00080818093CE0005C08091C9008F7D809399
:1007C000C900FF91EF919F918F910F900FBE0F90F5
:1007D0001F9018959C011092B9011092BA011092C5
:1007E000BB011092BC0197FF04C082E08093C80057
:1007F0003F77832F99278093CD002093CC0088E901
:100800008093C90086E08093CA0008959091BB014F
:100810008091BC01981719F480E091E00895E0916F
:10082000BC01EF5FEF71E093BC01FF27E756FE4F7D
:1008300020818091BD019927982F8827820F911DD3
:100840000895282F9091B9019F5F9F718091BA01FF
:100850009817E1F3E92FFF27E758FE4F2083909385
:10086000B9018091C90080628093C9000895CF9337
:10087000DF93EC0103C021960E9421048881882324
:10088000D1F7DF91CF910895CF93DF93EC0102C0B0
:100890000E942104FE01219684918823C9F7DF91EB
:1008A000CF91089580E480937C0083E080937A0068
:1008B00080917A00806880937A0080917A008064C9
:1008C00080937A0080917A0086FDFCCF8091780039
:1008D00090917900089590917C00907E8F71982B73
:1008E00090937C0080917A00806480937A0080915C
:1008F0007A0086FDFCCF8091780090917900089570
:10090000BF92CF92DF92EF92FF920F931F93B82E78
:10091000C62EEE24FF248701DD240AC08B2D0E9401
:100920006B04AA27BB27E80EF91E0A1F1B1FD394CE
:10093000DC14A1F72C2D332744275527C801B70114
:100940000E94990ADA01C9011F910F91FF90EF905F
:10095000DF90CF90BF90089510921C021092180261
:10096000109219028BE080931A02109216021092D4
:1009700015021092140208958091C501882309F48C
:1009800032C1F8942091C3013091C4017894C90117
:10099000C3978336910550F48091BE01E82FFF275D
:1009A000E852FE4F10828F5F8093BE01C9018759C4
:1009B00090408336910558F48091BE01E82FFF27BF
:1009C000E852FE4F91E090838F5F8093BE01255ADD
:1009D00036400CF400C11092BE0180911C028823A5
:1009E00009F4F5C0E8EDF1E0ADE1B2E081918D935D
:1009F00082E0E431F807D1F7309136028091380275
:100A00009927880F991F20913702820F911D880F17
:100A1000991F830F911D9C01220F331F220F331F3B
:100A2000280F391F809135029927880F991F40910F
:100A30003402840F911D880F991F40913302840F57
:100A4000911D280F391F220F331F80913202820F10
:100A50008093150220913E0280913F029927880FD2
:100A6000991F820F911D9C01220F331F220F331FEC
:100A7000280F391F80913D029927880F991F4091B7
:100A80003C02840F911D880F991F40913B02840FF7
:100A9000911D280F391F220F331F80913A02820FB8
:100AA0008093160220914502809146029927880F73
:100AB000991F820F911D9C01220F331F220F331F9C
:100AC000280F391F809144029927880F991F409160
:100AD0004302840F911D880F991F40914202840F99
:100AE000911D280F391F220F331F80914102820F61
:100AF00080931802809149029927880F991F2091AD
:100B00004802820F911D880F991F20914702280FDC
:100B10002093170280914D029927880F991F2091E9
:100B20004C02820F911D880F991F50914B0220910A
:100B30004E0245E0249F90011124250F311D820FA4
:100B4000931F880F991F20914A02280F20931902A2
:100B500030915302809156029927880F991F209156
:100B60005502820F911D880F991F20915402820F08
:100B7000911D880F991F830F911D9C01220F331F18
:100B8000220F331F280F391F809152029927880F97
:100B9000991F40915102840F911D880F991F409118
:100BA0005002840F911D280F391F220F331F80918F
:100BB0004F02820F80931A021092140289E08093F0
:100BC0001401809315018093160182E001C081E039
:100BD00080931C0206C08091BE018C3310F01092ED
:100BE000BE011092C5010895282F90E004C0822F05
:100BF0008170982726952223D1F7892F9927089568
:100C0000809114028F5F809314028D33C0F081E0D5
:100C100080931402809115028F5F809315028C33AC
:100C200070F010921502809116028F5F8093160269
:100C3000883128F0809118028F5F80931802089500
:100C40008F929F92AF92BF92CF92DF92EF92FF92DC
:100C50000F931F93CF93DF93CDB7DEB72C970FB6CB
:100C6000F894DEBF0FBECDBF0C831D832E833F8360
:100C7000488759876A877B878C8787018C809D800E
:100C8000A22EB62EE52EF42E3430C9F0353038F4CD
:100C9000323079F0333080F43130E9F407C0363047
:100CA000A1F0363078F03730B1F412C067E171E06E
:100CB00014C06AE171E011C06DE171E00EC060E244
:100CC00071E00BC063E271E008C066E271E005C04C
:100CD00069E271E002C06CE271E0C8010E944A0A58
:100CE00020E2F80122838F2D99276E010894C11C00
:100CF000D11CF9E0FF1510F0F80123834AE050E021
:100D0000B6010E94550AB601C8010E944A0A8EE245
:100D1000F80185836E010894C11CD11C2E2D332748
:100D2000F9E0FE1518F080E3F80186834AE050E010
:100D3000B601C9010E94550AB601C8010E944A0ABB
:100D40008EE2F80180876E010894C11CD11C2B2D06
:100D50003327F9E0FB1518F080E3F80181874AE0BA
:100D600050E0B601C9010E94550AB601C8010E94AF
:100D70004A0A20E2F80123876E010894C11CD11CA5
:100D80008A2D9927F9E0FA1510F0F80124874AE036
:100D900050E0B6010E94550AB601C8010E944A0AF5
:100DA0008AE3F80186876E010894C11CD11C292DA5
:100DB0003327F9E0F91518F080E3F80187874AE056
:100DC00050E0B601C9010E94550AB601C8010E944F
:100DD0004A0A8AE3F801818B6E010894C11CD11C78
:100DE000282D3327F9E0F81518F080E3F801828BFD
:100DF0004AE050E0B601C9010E94550AB601C80197
:100E00000E944A0AF801148A2C960FB6F894DEBFA5
:100E10000FBECDBFDF91CF911F910F91FF90EF904B
:100E2000DF90CF90BF90AF909F908F900895CF921A
:100E3000DF92EF92FF920F931F93CF93DF93CDB783
:100E4000DEB72C970FB6F894DEBF0FBECDBF0C8374
:100E50001D832E833F83488759876A877B878C87CA
:100E60008701CC80DD80822F33277E010894E11C2E
:100E7000F11C8A3018F480E2F80180834AE050E0E7
:100E8000B701C9010E94550AB701C8010E944A0A68
:100E90008AE3F80182837E010894E11CF11C2D2D68
:100EA0003327F9E0FD1518F080E3F80183834AE069
:100EB00050E0B701C9010E94550AB701C8010E945C
:100EC0004A0A8AE3F80185837E010894E11CF11C3B
:100ED0002C2D3327F9E0FC1518F080E3F801868308
:100EE0004AE050E0B701C9010E94550AB701C801A4
:100EF0000E944A0AF80110862C960FB6F894DEBFBD
:100F00000FBECDBFDF91CF911F910F91FF90EF905A
:100F1000DF90CF90089584B5826084BD85B58360ED
:100F200085BD8AEB87BDEEE6F0E08081846080833A
:100F3000E8E6F0E0808182608083ECE6F0E080818A
:100F40008160808308951F920F920FB60F92112433
:100F50008F939F9381E08093C0018091C101909114
:100F6000C20101969093C2018093C1019F918F911C
:100F70000F900FBE0F901F9018951F920F920FB6F3
:100F80000F9211248F939F938091C1019091C20180
:100F90009093C4018093C30181E08093C5011092B6
:100FA000C2011092C1019F918F910F900FBE0F90BF
:100FB0001F901895682F4091D501E42FFF2750917D
:100FC000D4019F012F5F3F4F852F9927281739079D
:100FD00091F0552311F4493071F0E653FE4F6083D0
:100FE000842F8F5F8093D5018A3010F01092D50145
:100FF00081E090E0089580E090E00895DC01E091C8
:10100000D4018091D501E81719F480E090E00895AB
:10101000FF27E653FE4F80818C938091D4018F5F30
:101020008093D4018A3018F481E090E00895109202
:10103000D40181E090E008950E94DA070895CF93EB
:10104000DF93EC018091C901882359F480911C023F
:10105000823039F460E08CE00E942A02CE010E94C6
:101060006602DF91CF9108950F931F93CF93DF9383
:10107000CDB7DEB765970FB6F894DEBF0FBECDBF14
:101080008091C601882319F081508093C601809118
:10109000C901882379F580E090E00E94FE0788234B
:1010A00049F160E080E00E942A0200E083E691E0DE
:1010B0000E9472020F5F0431C9F760E080E00E9475
:1010C0002A02E0910000FF27EE0FFF1FE356FF4FBB
:1010D000659174918E010F5F1F4FC8010E94430AF2
:1010E000C8010E9466028FE08093C60181E0809370
:1010F000C90111C08091C601882369F48091C9019A
:10110000882349F060E080E00E942A021092C90121
:1011100081E080932F018091C701843109F431C1AE
:10112000853130F4882359F08A3009F033C1B5C0D5
:101130008E3109F41DC1883209F02CC122C1809181
:101140002F01882311F10E943E0260E080E00E949E
:101150002A0289E591E00E94720261E081E00E942A
:101160002A0285E491E00E94720262E081E00E941E
:101170002A0283E391E00E94720263E081E00E9410
:101180002A0280E291E00E947202209132013091A5
:10119000330180913001909131018217930729F436
:1011A00080912F01882309F458C0C90166E070E0DE
:1011B0000E94860A069666E070E00E94860A9C01FC
:1011C0002093C801682F66956F5F99278170907092
:1011D0009C01A3E0220F331FAA95E1F7880F991F06
:1011E000820F0E942A028EE191E00E947202809199
:1011F0002F01882351F5809130019091310166E0F3
:1012000070E00E94860AFC013696CF0166E070E02D
:101210000E94860A62E070E00E94860A9B012F5FAE
:10122000CF0162E070E00E94860AAC01E3E0440F67
:10123000551FEA95E1F7622F880F991F840F0E94CE
:101240002A028CE191E00E94720280913201909119
:101250003301909331018093300110922F011B993B
:10126000AAC081E080932F018091C8012091C7011D
:10127000820F912D911D9C0153E0220F331F5A952F
:10128000E1F7880F991F820F931F865F8093C70134
:1012900010923301109232018EC080912F01882369
:1012A00001F10E943E020E94420280E191E00E9410
:1012B000720261E081E00E942A028CEF90E00E94BD
:1012C000720262E081E00E942A0288EE90E00E94B1
:1012D000720263E081E00E942A0284ED90E00E94A5
:1012E000720220913201309133018091300190914E
:1012F00031018217930721F480912F018823A9F1EE
:10130000C90164E070E00E94860A049664E070E01F
:101310000E94860A8093C801682F80E00E942A02FA
:1013200082ED90E00E94720280912F018823A9F43F
:10133000809130019091310164E070E00E94860A52
:10134000049664E070E00E94860A682F80E00E94A4
:101350002A0280ED90E00E94720280913201909109
:101360003301909331018093300110922F0123C0FB
:101370000E943E0261E083E00E942A0281EC90E03C
:1013800011C00E943E0261E083E00E942A0282EBCB
:1013900090E008C00E943E0261E083E00E942A02C1
:1013A00083EA90E00E9472021B9B05C081E080935B
:1013B0002F011092C70165960FB6F894DEBF0FBEDD
:1013C000CDBFDF91CF911F910F91089585B18E60B0
:1013D00085B9199B02C093E001C090E01A9B02C03E
:1013E00081E098279093D6010895F894809159024E
:1013F000109259027894992787FD90950895F89452
:1014000080915902982F9170909359027894859504
:10141000992787FD90950895F89480915902982F07
:10142000937090935902789485958595992787FDB7
:10143000909508958091D701882319F480E090E079
:1014400008951092D70181E090E00895199B02C0A1
:1014500023E001C020E01A9B02C081E02827909180
:10146000D601921B90FF0EC02093D60192708091FE
:101470005902980F9150909359021B9B03C081E031
:101480008093D7010895FB01DC0105900D920020A7
:10149000E1F70895FB01DC010D900020E9F71197B9
:1014A00001900D920020E1F70895FB019F01E8945F
:1014B0004230C4F04532B4F44A3029F497FB1EF4AC
:1014C000909581959F4F642F77270E94BB0A805D7E
:1014D0008A330CF0895D8193CB010097A1F716F454
:1014E0005DE251931082C9010C94760ADC01FC0183
:1014F000672F71917723E1F7329704C07C916D9348
:1015000070836291AE17BF07C8F3089597FB092E49
:1015100007260AD077FD04D02ED006D000201AF47A
:10152000709561957F4F0895F6F7909581959F4F3F
:101530000895A1E21A2EAA1BBB1BFD010DC0AA1F14
:10154000BB1FEE1FFF1FA217B307E407F50720F02C
:10155000A21BB30BE40BF50B661F771F881F991FA7
:101560001A9469F760957095809590959B01AC01F0
:10157000BD01CF010895AA1BBB1B51E107C0AA1FE3
:10158000BB1FA617B70710F0A61BB70B881F991F24
:101590005A95A9F780959095BC01CD010895FFCF8C
:1015A000000000000000000000000000000000003B
:1015B000000000000A0A0A4D6F004469004D6900EE
:1015C000446F00467200536100536F004E440001A7
:0215D0002509EB
:00000001FF
